:100000000C9480000C94A8000C94A8000C949611F9
:100010000C9496110C9496110C94A8000C94A800C2
:100020000C94A8000C94A8000C94A8000C943E0812
:100030000C94A8000C94A8000C94A8000C94A800A0
:100040000C9410120C94A8000C9462150C94941546
:100050000C94A8000C94A8000C94A8000C94A80080
:100060000C945E0C0C94A800570382034B038F037F
:10007000A503C903C303C903C903C903E70369038C
:1000800083079F07A9069F071C079F07870634065B
:100090009F079F079F079F079F073A059F071A061D
:1000A0009F076E060000000800020100000304071D
:1000B0000000000000000000010204081020408041
:1000C00001020408102001020408102004040404A2
:1000D00004040404020202020202030303030303F2
:1000E00000000000250028002B0000000000240074
:1000F00027002A009204740B87118B11C4154D162A
:1001000011241FBECFEFD8E0DEBFCDBF12E0A0E0CC
:10011000B1E0ECE6F2E302C005900D92A034B10725
:10012000D9F725E0A0E4B2E001C01D92A736B207DE
:10013000E1F710E0C0E0D1E004C02297FE010E9488
:10014000BB17C43FD107C9F70E944C170C94341950
:100150000C9400000F931F93CF93DF931F92CDB7A2
:10016000DEB7182F062F8EEF810F8231C0F4612F7A
:100170008DEC93E079830E94DC0F5981813079F412
:10018000402F612F8DEC93E00E94F70F602F812F9D
:100190000F90DF91CF911F910F910C94E7130F9067
:1001A000DF91CF911F910F9108951F93CF93DF930C
:1001B000182FEB018631A8F5682F8DEC93E00E9493
:1001C000DC0F8330F9F0843061F58EEF810F8231DE
:1001D00080F4E12FF0E0E15BFD4F408150E0CA0187
:1001E000880F991F840F951FBE018B599D4F0E9448
:1001F000DB09AE01612F8DEC93E0DF91CF911F9170
:100200000C94F70F133041F08BEF810F823020F008
:1002100087EF810F833068F7BE01812F0E9426137C
:10022000E8CFDF91CF911F910895DF92EF92FF9277
:100230000F931F93CF93DF93082FE62E833008F0A0
:100240008CC0182F110F110F110F185F173108F004
:1002500016E1C02FCC0FCC0FCC0FD0E0FF24F394CD
:10026000C11758F58EEF8C0F823120F56C2F8DEC75
:1002700093E00E94DC0F813039F06C2F8DEC93E01D
:100280000E94DC0F811116C0DD24D3948F2D8E21A6
:1002900009F4D12C6C2F8DEC93E00E94DC0F81309F
:1002A00009F044C0DF294D2D50E06C2F8DEC93E018
:1002B0000E94F70FFF0CCF5FD3CF01110AC0DC7F84
:1002C000F8949BB18D2F80958923DE218D2B8BB9DE
:1002D0002BC00130E1F42D2F2E21F89495B18D2FF4
:1002E0008F7380958923922F9F73892B85B988B14D
:1002F000E22EE294E694E69433E0E322D295D6959A
:10030000D695D370D095D823ED2AE8B80DC0DF700C
:10031000F89498B18D2F880F880F80958923ED224E
:10032000EE0CEE0C8E2988B9789417C06C2F8DECEA
:1003300093E00E94DC0F8111B6CFDD2009F4B3CF2A
:100340006C2F8DEC93E00E94ED0F019709F4ABCF79
:1003500062E08C2F0E94AE13A6CFDF91CF911F9148
:100360000F91FF90EF90DF900895CF93C82F8830C2
:1003700058F54091E5025091E60221E030E0082E68
:1003800002C0220F331F0A94E2F7672B49F420952D
:100390003095242335233093E6022093E50214C0E0
:1003A000242B352B3093E6022093E5028091400206
:1003B00081110AC08C2F0E940913AC016C2F8DECA7
:1003C00093E0CF910C94060FCF910895DB019A0131
:1003D000909141029C30D0F540914202682F70E02C
:1003E000442369F0E42FF0E0EE5BFD4F8081FB01D8
:1003F000E15BFD4F808341504093420207C0FB0107
:10040000E15BFD4F90839F5F90934102FB01E15BB5
:10041000FD4F1A161B067CF41216130664F4408175
:1004200050E0CA01880F991F840F951FAD018B59A9
:100430009D4F0C941609208130E0C901880F991F47
:10044000820F931F8B599D4F0C9494096EE071E0BD
:100450008DEC93E00C94980FCF93DF93C82FD0E0EE
:10046000C15BDD4F288130E0C901880F991F820FE1
:10047000931F8B599D4F0E949A0988819091410248
:10048000891306C0882379F08150809341020BC004
:10049000992349F0E0914202EF5FE0934202F0E0DD
:1004A000EE5BFD4F80838FEF8883DF91CF910895BE
:1004B0001F93CF93DF93162FC82FD0E0FE01E45295
:1004C000FD4F90811923C152DD4F411103C0988126
:1004D000911741F0412F50E0682F8DEC93E00E947E
:1004E0001F0F1883DF91CF911F910895833020F55E
:1004F000282F30E0F901EE51FD4F6083672BE1F0CA
:10050000F901E452FD4F9081811103C069B16C7F04
:100510000FC0813049F463B126B140E4249F9001BB
:1005200011246F73622B04C066B16C736695669577
:10053000692341E00C94580208958091E2028823D7
:1005400049F069B18091DC0268236C7F40E080E073
:100550000E9458028091E302882379F063B186B14A
:1005600020E4829FC00111246F73682B8091DD020B
:10057000682340E081E00E9458028091E4028823D1
:1005800059F066B16C73669566958091DE026823BA
:1005900040E082E00C945802089510928B028FEF95
:1005A00080930A010895FF920F931F93CF93DF93D7
:1005B000182FEB01682F8DEC93E00E94DC0F8F3732
:1005C00009F405C1612F8DEC93E00E94DC0F8630A9
:1005D00041F480918B02882321F0C630D10509F0C7
:1005E000E3C00EEF010F0231B8F4C430D105A1F021
:1005F000E12FF0E0E15BFD4F80818C3068F490E00A
:100600009C01220F331F280F391FC9018B599D4FA1
:100610000E94400A8111CBC0B2EFFB2EF10E87E0A1
:100620008F1550F061E070E0C230D10511F060E04C
:1006300070E08F2D0E94B5010231E8F4E12FE695BC
:10064000E695E695812F8770F0E0E452FD4F21E0BA
:1006500030E0082E01C0220F0A94EAF7209719F023
:10066000CB30D10521F48081822B808304C020957A
:1006700080812823208340E050E0612F8DEC93E0BF
:100680000E94F70FCC30D10508F083C0FE01EC5C6E
:10069000FF4F0C94B91787E08F1508F498C002310A
:1006A00020F460E0812F0E94AE1342E008C00231C6
:1006B00008F08DC060E0812F0E94AE1340E0612FF2
:1006C0008DEC93E0DF91CF911F910F91FF900C94EF
:1006D000E30F023108F07BC062E0812F0E94AE136D
:1006E0004BE0612F8DEC93E00E94E30F41E050E07E
:1006F000612F8DEC93E0DF91CF911F910F91FF90CF
:100700000C94F70F023108F062C060E0812F0E9464
:10071000E71361E0812F0E94AE1341E0D0CF133088
:1007200049F08BEF810F823028F087EF810F833003
:1007300008F04DC061E0812F0E94AE1360E070E0D0
:10074000812F0E94261343E0BACF023108F03FC048
:1007500044E0612F8DEC93E00E94E30FE12FF0E085
:10076000E15BFD4F80818F3F31F190E09C01220FD2
:10077000331F280F391FC9018B599D4F0E94400A12
:10078000811125C018C08EEE810F823000F546E041
:1007900096CF62E271E08DEC93E0DF91CF911F91F3
:1007A0000F91FF900C94980F0E94CD021ACF812FC9
:1007B0000E942C0231CF4FEF5FEF6FEF7FEF812F61
:1007C000DF91CF911F910F91FF900C94E601DF9183
:1007D000CF911F910F91FF900895CF93C0E08EEEBF
:1007E0008C0F823028F466E070E08C2F0E94D302D8
:1007F000CF5FC631A1F781E080938B028DE093E05B
:10080000CF910C94E60A0F931F93CF93DF9381E06F
:100810008093400280918B0281110E94CD02109240
:10082000E2021092DC021092DF021092E3021092B8
:10083000DD021092E0021092E4021092DE021092A9
:10084000E102CFE4D2E010E00FEF82EF810F8830B9
:1008500018F462E070E006C08EEF810F823128F458
:1008600061E070E0812F0E94D30209931F5F16316F
:1008700061F71092E6021092E50210924202109285
:10088000410210924002DF91CF911F910F91089584
:1008900025E042E063E371E08DEC93E00E942D0ED1
:1008A00045ED50E060EE8DEC93E00E94A60F45E12F
:1008B00051E060E98DEC93E00E94A60F45EB51E01A
:1008C00060EC8DEC93E00E94A60F46E752E060EDED
:1008D0008DEC93E00E94A60F43ED52E064EF8DECA7
:1008E00093E00E94A60F4AEA50E065EF8DEC93E09A
:1008F0000E94A60F46E255E060EF8DEC93E00E9467
:10090000D60F43E054E06FEF8DEC93E00E94CE0FE2
:1009100040E051EE60E070E08DEC93E00E947011D9
:100920000C940304CF93DF93C5E6D2E0CE010E947E
:10093000FA08239682E0C938D807C1F7DF91CF9132
:100940000895682F8DE093E00C94A70A8DE093E062
:100950000E94570A0895AF92BF92DF92EF92FF92E2
:100960000F931F93CF93DF931F92CDB7DEB7F82E6F
:100970005B01D42E6F3F8FEF7807C1F06F2D8DE0B4
:1009800093E029830E94F00A8A2D0E94A104298104
:10099000622F8DE093E00E94FA0A80918902909183
:1009A0008A02009729F00E94C31202C0A12CB12C28
:1009B0004D2D6F2D8DE093E00E946E0B0D2D10E0FC
:1009C0008DE093E00E944F0A081719071CF46AEAA9
:1009D00071E009C08DE093E00E944F0A80179107F3
:1009E00034F467EC71E08DEC93E00E94980FF09284
:1009F0008C02A0928D025EE8E52E52E0F52EA12C2D
:100A0000B12CA016B1069CF042E04D0D2CE832E06E
:100A100067E78DEC93E00F90DF91CF911F910F91DD
:100A2000FF90EF90DF90BF90AF900C944D0F8DE052
:100A300093E00E944F0A892B39F30E94A604F70124
:100A400081937F01FFEFAF1ABF0ADBCFEF92FF92D6
:100A50000F931F93CF93DF93162FEA0190E0FC01D1
:100A6000E956F109E231F10508F069C2E05CFF4F97
:100A70000C94B9172981922F987125FF03C063EE5A
:100A800071E05BC0888126FB222720F931E0232713
:100A9000983071F148F4911152C2682F8DE093E0C3
:100AA0000E94F00A02E007C0903109F440C098317A
:100AB00009F472C044C2011768F4FE01E00FF11D91
:100AC0009181808120E8929F801911240E94A104C5
:100AD0000E5FF1CF8DE093E00E94710B86E490E011
:100AE000DF91CF911F910F91FF90EF900C94C31263
:100AF0004A816B81163069F430E8639FB00111249C
:100B0000640F711D9D814C8130E8939F4019112421
:100B100006C090E8699F401911246FEF7FEFDF91C5
:100B2000CF911F910F91FF90EF900C94AB04E09147
:100B30000A01E73064F063E072E08DEC93E0DF914E
:100B4000CF911F910F91FF90EF900C94980F9A8185
:100B50004B8130E8663061F4439FA0011124490FB6
:100B6000511D3D819C8160E8369F9019112405C07C
:100B7000439F901911244FEF5FEFEF5FE0930A015D
:100B800065E0E602F0011124E455FD4F80835283B5
:100B9000418393832483D3C160910A0116163CF4E8
:100BA00070E0262F332727FD309595E00FC08FEF9B
:100BB00080930A01C4C1949FF001959FF00D112408
:100BC000E455FD4F4081481739F07F5F472F50E0D3
:100BD0002417350784F770E0C5E0872F90E02817C9
:100BE000390724F1783000F5AC014F5F5F4FC49FA7
:100BF000D001C59FB00D1124A455BD4F4C91C89F85
:100C0000F001C99FF00D1124E455FD4F408311966A
:100C10008D919C9112979283818313968C91139757
:100C2000838314968C9184837F5FD7CF61506093C8
:100C30000A0185C12881898130E8839FC001112480
:100C4000820F911D009721F090938A028093890270
:100C500080918B02811173C1DF91CF911F910F9110
:100C6000FF90EF900C94ED03653008F468C1188193
:100C70000981FA80EB80CC818EEF810F823108F000
:100C80005EC1E12FF0E0E15BFD4FE081EC3060F40C
:100C9000F0E0CF01880F991F8E0F9F1F8B599D4F3A
:100CA0000E94400A811147C160E8C69FA00111243B
:100CB0004E0D511D80E8F89EB0011124600F711D8A
:100CC000812F0E94E60164E070E0812FDF91CF91D7
:100CD0001F910F91FF90EF900C94D302623008F4B3
:100CE0002EC12881898130E8839FC0011124820FA1
:100CF000911D90930C0180930B01892B09F01FC16A
:100D000081E090E090930C0180930B0118C1623058
:100D100008F415C1698170E0123091F08A8120E8F1
:100D2000829FC0011124682B792B133049F08B81ED
:100D300090E090E4899F902D88271124682B792BCF
:100D40008881DF91CF911F910F91FF90EF900C94CC
:100D5000D50060EF8DEC93E00E949C0F6CE68DEC6B
:100D600093E00E949C0FCEEF84EF8C0F883058F4F4
:100D700062E08DEC93E00E949C0F6AE08DEC93E0C2
:100D80000E949C0F0DC0C13059F463E08DEC93E0DC
:100D90000E949C0F68E08DEC93E00E949C0F08C0BD
:100DA0008DEF8C0F823088F389EF8C0F833068F3DE
:100DB000C23150F464E08DEC93E00E949C0F6EE031
:100DC0008DEC93E00E949C0F80EF8C0F823050F4EA
:100DD00066E08DEC93E00E949C0F61E08DEC93E067
:100DE0000E949C0F6FE78DEC93E00E949C0FCF5FF9
:100DF000C431B9F1C23108F0B7CF60E08DEC93E0B7
:100E00000E949C0F61E08DEC93E00E949C0F6BE0D0
:100E10008DEC93E00E949C0F61E08DEC93E00E94CA
:100E20009C0F61E08DEC93E00E949C0F61E08DECE3
:100E300093E00E949C0F98CF662309F480C0C8817C
:100E400060EF8DEC93E00E949C0F6EE68DEC93E0DA
:100E50000E949C0F6C2F8DEC93E00E949C0FC6317A
:100E600058F067EF8DEC93E0DF91CF911F910F91D8
:100E7000FF90EF900C949C0F6C2F8DEC93E00E94F0
:100E8000DC0F682F8DEC93E00E949C0F6C2F8DEC93
:100E900093E00E94ED0F682F6F778DEC93E00E9436
:100EA0009C0F6C2F8DEC93E00E94ED0F8078892BC6
:100EB00079F06C2F8DEC93E00E94ED0F880F892F55
:100EC000881F990B682F6F778DEC93E00E949C0F21
:100ED0006C2F8DEC93E00E94ED0F8827907C892B7E
:100EE00009F4BFCF6C2F8DEC93E00E94ED0F990FAA
:100EF000880B990F982F881F682F6F778DEC93E0E0
:100F00000E949C0FAECF60EF8DEC93E00E949C0F8F
:100F10006AE68DEC93E00E949C0FC2EFC83010F09F
:100F20006FE701C06C2F8DEC93E00E949C0FCF5FA8
:100F3000C830A1F796CF812F0E942C02B5CEDF9149
:100F4000CF911F910F91FF90EF9008958F929F92F4
:100F5000AF92BF92CF92DF92EF92FF920F931F93C7
:100F60000E949D028DEC93E00E948D0E892B29F04A
:100F70008DEC93E00E94E210F5CF0E945A1260932C
:100F8000D8027093D9028093DA029093DB02C0906A
:100F9000D402D090D502E090D602F090D7024091D2
:100FA0000B0150910C014A01A12CB12C8B019C0129
:100FB0000C191D092E093F0980169106A206B306D9
:100FC00008F051C0D501C4018C0D9D1DAE1DBF1D83
:100FD0008093D4029093D502A093D602B093D70207
:100FE00012EF6EE0610F1830D8F48DEC93E00E94A0
:100FF000DC0F8230A9F42091E5023091E602012E47
:1010000002C0359527950A94E2F720FF09C0812F89
:101010000E940913AC01612F8DEC93E00E94060F32
:101020001F5F1830F1F680910A0187FD1CC010E0A7
:1010300005E0812F90E020910A01332727FD3095AC
:101040002817390784F0089FF001099FF00D11243B
:10105000E455FD4F618172812481438180810E942A
:10106000AB041F5FE6CF1F910F91FF90EF90DF90D1
:10107000CF90BF90AF909F908F9008951F920F9246
:101080000FB60F9211242F933F934F935F936F935B
:101090007F938F939F93AF93BF93EF93FF93809131
:1010A000E80287FF05C010928500109284001AC0E4
:1010B0002091E802332727FD30958091E70290E0E8
:1010C000281739077CF48091E802992787FD9095CD
:1010D000FC01EE0FFF1FE80FF91FE751FD4F808164
:1010E00086FD15C08091E8028F5F8093E802209111
:1010F000E802332727FD30958091E70290E028171A
:101100003907BCF48091E8028C305CF112C0809108
:10111000E802992787FD9095FC01EE0FFF1FE80F6D
:10112000F91FE751FD4F808160E08F730E94E71344
:10113000D9CF8091840090918500049680349C4999
:1011400018F480E49CE905C08091840090918500AA
:10115000049690938900809388008FEF8093E80233
:1011600038C020918400309185008091E802992751
:1011700087FD9095FC01EE0FFF1FE80FF91FE75167
:10118000FD4F81819281820F931F909389008093FC
:1011900088008091E802992787FD9095FC01EE0F69
:1011A000FF1FE80FF91FE751FD4F808186FF11C037
:1011B0008091E802992787FD9095FC01EE0FFF1FB3
:1011C000E80FF91FE751FD4F808161E08F730E94A6
:1011D000E713FF91EF91BF91AF919F918F917F9115
:1011E0006F915F914F913F912F910F900FBE0F9094
:1011F0001F9018952091E7022C30A0F431E0320FB7
:101200003093E702FC012083822F90E0FC01EE0F77
:10121000FF1FE80FF91FE751FD4F88EB9BE092831A
:10122000818308952FEFFC0120830895DF92EF92D0
:10123000FF920F931F93CF93DF93EC01D62E7A0189
:10124000890188818C3008F066C061E08D2D0E9494
:10125000AE138881A82FB0E0FD01EE0FFF1FEA0F4B
:10126000FB1FE751FD4F2D2D2F739081907C922B0A
:10127000908360E272E06E197F0977FF02C06D5FB4
:101280007F4F7595679575956795698340E659E039
:10129000401B510B57FF02C04D5F5F4F559547955F
:1012A000559547954A836CE00E946C179CE0899F96
:1012B000B001112420E030E0A901460F571FFA01C8
:1012C000EE0FFF1FE40FF51FE751FD4F908196FDD4
:1012D00016C02F5F3F4F2C30310571F781110FC0C1
:1012E0001092800082E0809381001092850010921D
:1012F0008400B19A80916F00826080936F00888132
:1013000090E0FC01EE0FFF1FE80FF91FE751FD4FC2
:101310008081806480838881DF91CF911F910F91BC
:10132000FF90EF90DF90089520E639E040E252E030
:101330000C941609FC01808190E0FC01EE0FFF1F68
:10134000E80FF91FE751FD4F80818F7B808308955F
:10135000FC0180818C3070F5918128E830E0291BF8
:10136000310997FD3395220F331F220F331F621768
:1013700073077CF0928128E532E0291B310997FD43
:101380003395220F331F220F331F621773070CF49C
:101390009B0122503109220F331F4FB7F89490E080
:1013A000FC01EE0FFF1FE80FF91FE751FD4F3283DD
:1013B00021834FBF08954F925F926F927F92AF92B9
:1013C000BF92CF92DF92EF92FF920F931F93CF9332
:1013D000DF93EC01603282E078070CF040C077FDCB
:1013E00006C0653B71052CF064EB70E002C060E064
:1013F00070E0898128E830E0281B310987FD3395AA
:10140000220F331F220F331F5901CC24B7FCC09485
:10141000DC2C882777FD8095982F2A8148E552E0BB
:10142000421B510927FD5395440F551F440F551F6B
:101430002A01662457FC6094762C7F926F925F920B
:101440004F9214EBE12EF12C00E010E020E030E0B0
:10145000A9010E9404170F900F900F900F90CE01DA
:10146000DF91CF911F910F91FF90EF90DF90CF9080
:10147000BF90AF907F906F905F904F900C94A809B1
:10148000FC01808190E0FC01EE0FFF1FE80FF91FC7
:10149000E751FD4F808186FB882780F90895809170
:1014A0003D0390E020913E03821B91090895209115
:1014B0003E0380913D03281750F4E22FF0E0E15CF9
:1014C000FC4F808190E02F5F20933E0308958FEFC3
:1014D0009FEF0895E0913E0380913D03E81730F4BB
:1014E000F0E0E15CFC4F808190E008958FEF9FEF8A
:1014F00008950895CF92DF92EF92FF920F931F937A
:10150000CF93DF937C01CB018A0120911903222321
:1015100089F0EB016B01C40ED51ECC15DD0569F019
:101520006991D701ED91FC910190F081E02DC70107
:101530000995F3CF642F0E94350CC801DF91CF913C
:101540001F910F91FF90EF90DF90CF900895CF9370
:10155000DF931F92CDB7DEB7698320911903222351
:10156000D1F020911A03203240F021E030E0FC015C
:101570003383228380E090E015C080911B03E82F25
:10158000F0E0E45EFC4F998190838F5F80931B03B2
:1015900080931A0305C061E0CE0101960E94350CCC
:1015A00081E090E00F90DF91CF910895FC011382CC
:1015B000128248EE53E060E070E044835583668316
:1015C000778388E192E091838083089510923E03AF
:1015D00010923D0310921B0310921A030C94780B87
:1015E00081E08093190360933C0310921B031092D7
:1015F0001A0308950F93062F21E040911A036CE11E
:1016000073E080913C030E94DE0B10921B0310924A
:101610001A03109219030F9108958F929F92AF921F
:10162000BF92CF92DF92EF92FF920F931F93CF93CF
:10163000DF93EC01F62ED42E48015901EE2019F16A
:101640000E94F00A1E2D143008F013E01150B8F07B
:10165000E881F98128E0129FB0011124A5019401CD
:1016600004C056954795379527956A95D2F7CA01D4
:10167000B9010190F081E02DCE010995E7CF60E03E
:10168000CE010E94FA0A4D2D413208F040E22C2D85
:101690006FE373E08F2D0E94960B10923E038093B0
:1016A0003D03DF91CF911F910F91FF90EF90DF905D
:1016B000CF90BF90AF909F908F900895CF92EF9270
:1016C0000F931F93C22EE12C00E010E098010E94BE
:1016D0000D0B1F910F91EF90CF90089521E00C9486
:1016E0005E0B61E00C94FA0A8DE093E00C94D60A4C
:1016F0001092CC0381E08093CA031092C90361E089
:1017000082E10E94E71361E083E10E94E713E9EBC5
:10171000F0E080818E7F808380818D7F808388E46C
:101720008093B80085E48093BC000895413208F0AE
:1017300043C09091CC039111FCCF91E09093CC03E6
:101740002093CA032FEF20935F031092A403240F6A
:101750002093A3039093CB039091CB03880F892B05
:101760008093CB038091C903813061F41092C90347
:101770008091CB038093BB008091BC0083FDF8CFA8
:1017800085EC01C085EE8093BC008091CC03813054
:10179000E1F38091A403841710F44091A40325EA97
:1017A00033E0FB01D9018A2F821B841718F48D9135
:1017B0008193F9CF842F089580E008950F934132EB
:1017C00008F04AC09091CC039111FCCF92E0909325
:1017D000CC030093CA039FEF90935F031092A4037E
:1017E0004093A303FB0165EA73E0DB019A2F961B8C
:1017F000941718F491919D93F9CF1092CB03909187
:10180000CB03880F892B8093CB038091C903813050
:1018100061F41092C9038091CB038093BB00809147
:10182000BC0083FDF8CF85EC01C085EE8093BC0041
:10183000222321F08091CC038230E1F380915F0379
:101840008F3F61F080915F03803251F080915F03A0
:10185000803341F483E007C081E005C080E003C02D
:1018600082E001C084E00F910895613298F42091E4
:10187000CC03243089F460938103FC0183E893E076
:10188000DC012A2F281B261718F421912D93F9CF5C
:1018900080E0089581E0089582E0089585ED8093C9
:1018A000BC008091BC0084FDFCCF1092CC03089555
:1018B00085EC8093BC001092CC0308951F920F9288
:1018C0000FB60F9211242F933F934F935F936F9313
:1018D0007F938F939F93AF93BF93EF93FF938091E9
:1018E000B900887F803609F49EC078F5883209F403
:1018F0005DC090F4803109F456C038F4882309F4AF
:10190000F5C0883009F44FC0F5C0883109F44EC0E5
:10191000803209F45FC0EEC0803409F46AC058F424
:10192000803309F457C0883309F0E4C080935F0323
:101930000E94580CDFC0803509F44FC0883509F487
:101940005DC0883409F0D6C0D3C0883909F4C4C05A
:10195000A8F4883709F467C038F4883609F463C0FE
:10196000803709F460C0C6C0883809F4B5C0803932
:1019700009F45FC0803809F0BDC05BC0803B09F44A
:1019800083C038F4803A09F466C0883A09F47CC010
:10199000B1C0803C09F4A4C0883C09F4A1C0883BD4
:1019A00009F487C0A7C08091CB0310C09091A40315
:1019B0008091A303981770F5E091A40381E08E0F46
:1019C0008093A403F0E0EB55FC4F80818093BB0033
:1019D00085EC83C080935F038BC0E091A40381E01A
:1019E0008E0F8093A4038091BB00F0E0EB55FC4F79
:1019F00080839091A4038091A3036BC0E091A40322
:101A000081E08E0F8093A4038091BB00F0E0EB5542
:101A1000FC4F80838091CA0381116AC081E080936A
:101A2000C90384EA5EC083E08093CC031092600314
:101A3000CFCF80916003803208F04EC0E091600308
:101A400081E08E0F809360038091BB00F0E0EF593E
:101A5000FC4F8083BDCF0E94580C80916003803280
:101A600030F4E0916003F0E0EF59FC4F1082609198
:101A7000600370E0E091C503F091C60381E693E056
:101A800009951092600336C084E08093CC031092D5
:101A9000820310928103E091C703F091C803099576
:101AA00080918103811105C081E0809381031092B0
:101AB0008303E091820381E08E0F80938203F0E044
:101AC000ED57FC4F80818093BB0090918203809101
:101AD0008103981708F47CCF85E88093BC000AC086
:101AE00085EC8093BC001092CC0304C010925F037D
:101AF0000E944E0CFF91EF91BF91AF919F918F91FA
:101B00007F916F915F914F913F912F910F900FBEF9
:101B10000F901F9018950F931F93CF93DF93EC01B5
:101B20008B0188819981DC01ED91FC916F770190A7
:101B3000F081E02D099588819981DC01ED91FC917E
:101B4000B801660F672F661F770B6F770190F081E2
:101B5000E02DDF91CF911F910F910994DC018D91C0
:101B60009C91DC01ED91FC910190F081E02D60EF02
:101B70000994DC018D919C91DC01ED91FC91019027
:101B8000F081E02D67EF0994CF93DF93EC0188811A
:101B90009981DC01ED91FC910190F081E02D69EFDC
:101BA000099588819981DC01ED91FC910190F0818A
:101BB000E02D62E0099588819981DC01ED91FC912D
:101BC0000190F081E02D65E0DF91CF9109941F93A2
:101BD000CF93DF93EC018A818823D9F1CE010E9453
:101BE000AE0D88819981DC01ED91FC910190F0812D
:101BF000E02D69E7099588819981DC01ED91FC91DF
:101C0000AB81BC810190F081E02D6C9109958881B8
:101C10009981DC01ED91FC91AB81BC810190F08157
:101C2000E02D11966C91099512E08A81181758F4ED
:101C3000EB81FC81E10FF11D608170E0CE010E941B
:101C40008B0D1F5FF2CFCE01DF91CF911F910C94CE
:101C5000B90DDF91CF911F910895CF92DF92EF924E
:101C6000FF920F931F93CF93DF938C01EB01C42E50
:101C7000D22E64E272E0CE010E941A197C016FE25A
:101C800070E0CE010E940F19009739F46CE570E006
:101C9000CE010E940F19009711F0EC012196E1147A
:101CA000F10451F4FE0101900020E9F7EC1BEF5F15
:101CB000D8011296EC9306C0EC1AFD0AE394E39463
:101CC000F801E282D80113968D919C9114970E949D
:101CD0007118F801E280F12CC70101960E94D91712
:101CE000D80114969C938E931397FC01EE0DFF1D63
:101CF0001082FC01C082D18212964C9150E0425079
:101D00005109BE010296DF91CF911F910F91FF9073
:101D1000EF90DF90CF900C940019DC018D919C9195
:101D2000DC01ED91FC910480F581E02D09940F9385
:101D30001F93CF93DF93FC012085213749F029378A
:101D400009F049C0DF91CF911F910F910C94E70DDD
:101D5000FC01E556FF4F0190F081E02D309709F42A
:101D600050C0DC01A75BBF4F4D915C919A0121509F
:101D7000310937FD9A01B90175956795062F40E045
:101D800050E020E030E04E5F5F4F2017A0F4EC0100
:101D9000C40FD51F1F81DC01A20FB31F18961C931F
:101DA0001897C885D0E8CD9F1019112418961C9358
:101DB0002F5F3F4FE8CFDC01A60FB11D17962C9186
:101DC0001797222311F018961C920896DF91CF9155
:101DD0001F910F910994FC01E356FF4F0190F08190
:101DE000E02D309771F0AC01475F5F4FDC01A75BDE
:101DF000BF4F6C916150822FDF91CF911F910F9156
:101E00000994DF91CF911F910F9108950F931F9324
:101E1000CF93DF93EC018A0188819981DC01ED91F8
:101E2000FC916F70606E0190F081E02D0995B80112
:101E3000CE01DF91CF911F910F910C948B0D0F93D9
:101E40001F93CF93DF93EC018A0188819981DC0194
:101E5000ED91FC916F7060690190F081E02D099522
:101E600088819981DC01ED91FC91602F6F77019061
:101E7000F081E02D099588819981DC01ED91FC913B
:101E8000B801660F672F661F770B0190F081E02D78
:101E9000DF91CF911F910F910994CF92DF92EF9232
:101EA000FF920F931F93CF93DF9300D01F92CDB774
:101EB000DEB78C01F42E2A833B8369830E94AE0D2A
:101EC000D8018D919C91DC01ED91FC910190F08104
:101ED000E02D698109952A81E22EC22E3B81D32E05
:101EE0008C2D8E198F1540F4F60161916F0170E011
:101EF000C8010E948B0DF4CFC8010F900F900F9076
:101F0000DF91CF911F910F91FF90EF90DF90CF90D5
:101F10000C94B90D9A01613751F4FA010190002037
:101F2000E9F73197E41BF50B4E2F0C944D0F0895F4
:101F3000AB0161E70C948A0FDC018D919C91DC016F
:101F4000ED91FC910190F081E02D0994603DC1F08C
:101F500028F4603969F0603C79F00895643FA1F09D
:101F6000653FB1F0603EC9F4FC01E357FF4F13C079
:101F7000FC01E157FF4F0FC0FC01EF56FF4F0BC0B4
:101F8000FC01ED56FF4F07C0FC01EB56FF4F03C0AD
:101F9000FC01E956FF4F5183408308956F3F29F4B8
:101FA000FC01E756FF4F51834083089583569F4FAE
:101FB000FC01518340830895860F911DFC01E55B70
:101FC000FF4F80810895860F911DFC01E55BFF4F57
:101FD00080818F3709F040830895860F911D860F09
:101FE000911DFC01EF59FF4F808191810895860F6B
:101FF000911D860F911DFC01EF59FF4F51834083C6
:102000000895FC0115821682178280E090E0DF01BE
:10201000A80FB91F18961C92019680349105B9F744
:10202000DF01A85BBF4F1C9211961D921C92E756D0
:10203000FF4F0190F081E02D309709F00994089549
:10204000FC01E156FF4F1082FC01128214821382C0
:102050000C940110CF93DF93EC01FC01E85BFF4F80
:1020600080818823A1F0673F31F41082CE01DF9197
:10207000CF910C94970EFE01E75BFF4F8081918119
:10208000C80FD91F688701969183808398C08D817E
:10209000882309F452C067FD50C081508D83FE0132
:1020A000E80FF11D608781118AC08E81882309F4B1
:1020B00086C0803DA1F140F4803981F0803CD9F5A3
:1020C000FE01EF56FF4F2EC0843FC9F0853FD9F087
:1020D000803E89F5FE01E357FF4F03C0FE01E15743
:1020E000FF4F0190F081E02D309729F188856985B7
:1020F00070E090E8899F600D711D11241AC0FE01E7
:10210000EB56FF4F03C0FE01E956FF4F0190F081EF
:10211000E02D309781F0688570E089850BC0FE0165
:10212000ED56FF4F0190F081E02D309721F068854A
:1021300070E08F8109951E8242C0862F603F28F48F
:10214000807F90E06F706F8301C090E0803F9105C9
:1021500049F17CF4803C910509F124F48039910522
:10216000D9F02DC0803D9105C9F0803E9105A1F0C8
:1021700026C0893F9105E9F03CF49C01245F3109B8
:102180002230310548F01BC08F3F9105C1F4CE01CC
:10219000DF91CF910C94011092E001C091E09D83FA
:1021A0008E830DC081E08083C75BDF4F1982188268
:1021B00006C08DEC93E0DF91CF910C94C40DDF91BC
:1021C000CF910895CF93DF93EC0188819981DC0151
:1021D000ED91FC910680F781E02D09958F3FBFEFCF
:1021E0009B0731F0682FCE01DF91CF910C942A101C
:1021F000DF91CF9108957F928F929F92AF92BF927D
:10220000CF92DF92EF92FF920F931F93CF93DF93C2
:10221000762EEA01680110E0EE24D7FCE094FE2C53
:102220004901AA2497FCA094BA2C212F30E02C1746
:102230003D0794F4C701B6010E94891261E0872D21
:102240000E94E713C501B4010E94891260E0872D46
:102250000E94E7131F5FE9CFDF91CF911F910F918C
:10226000FF90EF90DF90CF90BF90AF909F908F90B6
:102270007F9008950F931F93CF93DF93EC01FC01A0
:10228000E156FF4F8081811126C061E08DE00E9400
:10229000AE1302ED10E028E230E042E050E06DE0E5
:1022A000CE010E94FB106AEF70E080E090E00E9497
:1022B000891228E230E045E050E06DE0CE010E9456
:1022C000FB106DE770E080E090E0DF91CF911F910F
:1022D0000F910C948912DF91CF911F910F91089566
:1022E000CF93DF93EC0126E080EC94E00E94001590
:1022F00080EC94E099838883CE010E943A11CE014C
:102300000E94C40DCE01DF91CF910C94E70D8DECAE
:1023100093E00C9420100F9300E020E040E060E098
:102320008DE694E00E9441160F9108951F920F923E
:102330000FB60F9211242F933F934F935F936F9398
:102340007F938F939F93AF93BF93EF93FF93E0910E
:10235000B504F091B604309709F451C0868DA68576
:10236000B785958581FF04C08C91892329F447C0E6
:102370008C91892309F043C0A389B4899C918589F4
:10238000809589238C93868997890197F1F7208D11
:10239000318DA685B785758558E040E0C901019764
:1023A000F1F7842F90E095958795482F6C916723DE
:1023B00009F04068515091F7868D81FD40958091DC
:1023C000740490E001968F73992720917304281765
:1023D00049F0A0917404B0E0AB58BB4F4C9380938C
:1023E000740403C0868D8160868F828D938D0197E2
:1023F000F1F7A389B4898C919589892B8C93FF91EE
:10240000EF91BF91AF919F918F917F916F915F916C
:102410004F913F912F910F900FBE0F901F901895E5
:102420001F920F920FB60F9211242F933F938F9309
:102430009F93AF93BF938091B8049091B904A091FA
:10244000BA04B091BB043091B70423E0230F2D37B9
:1024500020F40196A11DB11D05C026E8230F0296A8
:10246000A11DB11D2093B7048093B8049093B904C3
:10247000A093BA04B093BB048091BC049091BD04B6
:10248000A091BE04B091BF040196A11DB11D80931F
:10249000BC049093BD04A093BE04B093BF04BF914D
:1024A000AF919F918F913F912F910F900FBE0F9001
:1024B0001F9018952FB7F8946091B8047091B904E3
:1024C0008091BA049091BB042FBF08953FB7F89450
:1024D0008091BC049091BD04A091BE04B091BF0452
:1024E00026B5A89B05C02F3F19F00196A11DB11D6F
:1024F0003FBF6627782F892F9A2F620F711D811D8C
:10250000911D42E0660F771F881F991F4A95D1F7EA
:1025100008958F929F92AF92BF92CF92DF92EF92E7
:10252000FF926B017C010E9466124B015C01C11499
:10253000D104E104F104F1F00E945B170E946612DD
:10254000681979098A099B09683E734081059105DC
:1025500070F321E0C21AD108E108F10888EE880E74
:1025600083E0981EA11CB11CC114D104E104F10444
:1025700029F7DDCFFF90EF90DF90CF90BF90AF9025
:102580009F908F9008958230910538F0880F991FA1
:10259000880F991F05970197F1F70895789484B5EE
:1025A000826084BD84B5816084BD85B5826085BD4F
:1025B00085B5816085BDEEE6F0E080818160808335
:1025C000E1E8F0E010828081826080838081816018
:1025D0008083E0E8F0E0808181608083E1EBF0E0DF
:1025E000808184608083E0EBF0E080818160808383
:1025F000EAE7F0E08081846080838081826080836C
:102600008081816080838081806880831092C10096
:1026100008958E3008F08E50877020910D0190E45F
:10262000299F90011124822B80937C0080917A0055
:10263000806480937A0080917A0086FDFCCF80913F
:1026400078002091790090E0922B08951F93CF930A
:10265000DF93182FEB0161E00E94AE13209711F475
:1026600060E004C0CF3FD10539F461E0812FDF91F4
:10267000CF911F910C94E713E12FF0E0EC55FF4F41
:10268000E491E330F9F048F4E130B9F0E230A1F53B
:1026900084B5806284BDC8BD34C0E730E9F0E8305D
:1026A00019F1E43049F580918000806280938000C8
:1026B000D0938B00C0938A0024C084B5806884BD09
:1026C000C7BD1FC080918000806880938000D09338
:1026D0008900C093880015C08091B0008068809305
:1026E000B000C093B3000DC08091B00080628093B1
:1026F000B000C093B40005C0C038D1050CF0B5CF10
:10270000AFCFDF91CF911F910895833081F028F4EE
:10271000813099F08230A1F008958730A9F0883097
:10272000B9F08430D1F4809180008F7D03C0809116
:1027300080008F7780938000089584B58F7702C0E2
:1027400084B58F7D84BD08958091B0008F7703C0DC
:102750008091B0008F7D8093B0000895CF93DF9378
:1027600090E0FC01E854FF4F2491FC01E453FF4F3B
:102770008491882349F190E0880F991FFC01E6516C
:10278000FF4FA591B49180529F4FFC01C591D49108
:102790009FB7611108C0F8948C91209582238C9387
:1027A000888182230AC0623051F4F8948C91322FD0
:1027B000309583238C938881822B888304C0F8947E
:1027C0008C91822B8C939FBFDF91CF9108950F93B3
:1027D0001F93CF93DF931F92CDB7DEB7282F30E042
:1027E000F901EC55FF4F8491F901E854FF4F149122
:1027F000F901E453FF4F04910023C9F0882321F02D
:1028000069830E9485136981E02FF0E0EE0FFF1FBE
:10281000E052FF4FA591B4919FB7F8948C9161114C
:1028200003C01095812301C0812B8C939FBF0F9013
:10283000DF91CF911F910F910895FC01818D228D21
:1028400090E0805C9F4F821B91098F7399270895B8
:10285000FC01918D828D981731F0828DE80FF11D6A
:10286000858D90E008958FEF9FEF0895FC01918D85
:10287000828D981761F0828DDF01A80FB11D5D96E2
:102880008C91928D9F5F9F73928F90E008958FEF50
:102890009FEF08958AEB95E1892B49F080E090E065
:1028A000892B29F00E94BA1581110C94000008951B
:1028B000FC01848DDF01A80FB11DA35ABF4F2C91DD
:1028C000848D90E001968F739927848FA689B789AC
:1028D0002C93A089B1898C9180648C93938D848D85
:1028E000981306C00288F389E02D80818F7D808354
:1028F0000895CF93DF93EC01888D8823C9F0EA898E
:10290000FB89808185FD05C0A889B9898C9186FDE8
:102910000FC00FB607FCF5CF808185FFF2CFA889E5
:10292000B9898C9185FFEDCFCE010E945814E7CF75
:10293000DF91CF910895CF92DF92FF920F931F9373
:10294000CF93DF931F92CDB7DEB76C0181E0D60144
:1029500058968C9358975B969C915B975C968C915C
:102960005C97981307C05096ED91FC915197808128
:1029700085FD2EC0F601038D10E00F5F1F4F0F7312
:102980001127F02EF601848DF81211C00FB607FC46
:10299000F9CFD6015096ED91FC915197808185FF3A
:1029A000F1CFC60169830E9458146981EBCF838DF2
:1029B000E80FF11DE35AFF4F6083D6015B960C933D
:1029C0005B975296ED91FC915397808180620CC089
:1029D000D6015696ED91FC91579760835096ED91F4
:1029E000FC91519780818064808381E090E00F901A
:1029F000DF91CF911F910F91FF90DF90CF900895BD
:102A0000BF92CF92DF92EF92FF92CF93DF93EC01D0
:102A10006A017B01B22EE889F98982E08083411541
:102A200081EE580761057105A1F060E079E08DE362
:102A300090E0A70196010E947817215031094109C1
:102A400051095695479537952795211580E1380707
:102A500098F0E889F989108260E874E88EE190E0E6
:102A6000A70196010E9478172150310941095109A7
:102A70005695479537952795EC85FD853083EE85EE
:102A8000FF852083188EEC89FD89B082EA89FB8955
:102A9000808180618083EA89FB898081886080836E
:102AA000EA89FB89808180688083EA89FB8980814B
:102AB0008F7D8083DF91CF91FF90EF90DF90CF905B
:102AC000BF9008951F920F920FB60F9211242F936B
:102AD0008F939F93EF93FF93E091D004F091D104F3
:102AE0008081E091D604F091D70482FD12C09081DC
:102AF0008091D9048F5F8F732091DA04821751F08F
:102B0000E091D904F0E0E054FB4F958F8093D90415
:102B100001C08081FF91EF919F918F912F910F9034
:102B20000FBE0F901F9018951F920F920FB60F9225
:102B300011242F933F934F935F936F937F938F93C2
:102B40009F93AF93BF93EF93FF9380EC94E00E9429
:102B50005814FF91EF91BF91AF919F918F917F9109
:102B60006F915F914F913F912F910F900FBE0F90FA
:102B70001F90189580EC94E00E941D1421E0892B91
:102B800009F420E0822F08951092C3041092C20429
:102B900088EE93E0A0E0B0E08093C4049093C50475
:102BA000A093C604B093C7048DE292E09093C10451
:102BB0008093C00485EC90E09093CD048093CC0486
:102BC00084EC90E09093CF048093CE0480EC90E06E
:102BD0009093D1048093D00481EC90E09093D3043F
:102BE0008093D20482EC90E09093D5048093D40437
:102BF00086EC90E09093D7048093D6041092D90489
:102C00001092DA041092DB041092DC040895AF9263
:102C1000BF92CF92DF92EF92FF920F931F93CF93C9
:102C2000DF936C017B01C0E0D0E000E010E0F60132
:102C3000EC0FFD1F4AE050E06281C7010E94FD16C3
:102C40005C016EE2C7010E949A168A0D9B1D080F57
:102C5000191F2196C330D10551F74AE050E0F60123
:102C60006581C7010E94FD16800F911FDF91CF91F2
:102C70001F910F91FF90EF90DF90CF90BF90AF909A
:102C800008950F93FC018DE392E09183808362832A
:102C90004383248305830F9108958DE392E09093FD
:102CA0005E0580935D0510925F051092600510929D
:102CB0006105109262050895CF92DF92EF92FF9224
:102CC0000F931F93CF93DF937C016A01EB0100E028
:102CD00010E00C151D0571F06991D701ED91FC9183
:102CE0000190F081E02DC7010995892B19F00F5F44
:102CF0001F4FEFCFC801DF91CF911F910F91FF9030
:102D0000EF90DF90CF9008956115710581F0DB01A0
:102D10000D900020E9F7AD0141505109461B570BBA
:102D2000DC01ED91FC910280F381E02D099480E0BB
:102D300090E00895DC01ED91FC910190F081E02D8F
:102D400009948F929F92AF92BF92DF92EF92FF927F
:102D50000F931F93CF93DF93CDB7DEB7A1970FB635
:102D6000F894DEBF0FBECDBF7C01F42FD52ECB0172
:102D700019A2223008F42AE08E010F5D1F4F822E27
:102D8000912CA12CB12C6F2F7D2DA50194010E94B7
:102D90007817F22FD32ECA01015011096A3014F4AA
:102DA000E0E301C0E7E3E60FD801EC93232B242BEB
:102DB000252B49F7B801C7010E948416A1960FB6CA
:102DC000F894DEBF0FBECDBFDF91CF911F910F9161
:102DD000FF90EF90DF90BF90AF909F908F900895FD
:102DE0002115310541F4DC01ED91FC910190F08158
:102DF000E02D642F09940C94A1169A01462F50E0FF
:102E000060E070E00C94F0164F925F926F927F92A8
:102E1000AF92BF92CF92DF92EF92FF920F931F93E8
:102E2000CF93DF93CDB7DEB729013A01621B730B55
:102E3000840B950B29893A894B895C892A193B09AE
:102E40004C095D09298B3A8B4B8B5C8B9B01AC0148
:102E500069897A898B899C890E945C17E418F50836
:102E600006091709A80197010E949A172A0D3B1D10
:102E70004C1D5D1DCA01B901DF91CF911F910F91CA
:102E8000FF90EF90DF90CF90BF90AF907F906F90CA
:102E90005F904F90089508950E94CE120E944B17A4
:102EA0000E944804CAE4D4E10E94A6072097E1F3F7
:102EB0000E944A14F9CF0895DB018F939F930E94DB
:102EC000BF17BF91AF91A29F800D911DA39F900D41
:102ED000B29F900D11240895991B79E004C0991FA9
:102EE000961708F0961B881F7A95C9F78095089564
:102EF000A1E21A2EAA1BBB1BFD010DC0AA1FBB1FFE
:102F0000EE1FFF1FA217B307E407F50720F0A21B6F
:102F1000B30BE40BF50B661F771F881F991F1A94DC
:102F200069F760957095809590959B01AC01BD0106
:102F3000CF010895052E97FB1EF400940E94B1174F
:102F400057FD07D00E94781707FC03D04EF40C946D
:102F5000B11750954095309521953F4F4F4F5F4F9A
:102F6000089590958095709561957F4F8F4F9F4FF5
:102F70000895EE0FFF1F0590F491E02D09940E9433
:102F8000CA17A59F900DB49F900DA49F800D911D11
:102F900011240895A29FB001B39FC001A39F700D9B
:102FA000811D1124911DB29F700D811D1124911D51
:102FB0000895CF93DF938230910510F482E090E082
:102FC000E0916505F091660520E030E0A0E0B0E01A
:102FD000309739F14081518148175907B8F04817A7
:102FE000590771F482819381109729F013969C936D
:102FF0008E9312972CC0909366058093650527C029
:103000002115310531F04217530718F0A901DB01F2
:1030100001C0EF019A01BD01DF010280F381E02DC3
:10302000D7CF21153105F9F0281B390B2430310594
:1030300080F48A819B816115710521F0FB019383E6
:10304000828304C09093660580936505FE013296E5
:1030500044C0FE01E20FF31F819391932250310986
:10306000398328833AC02091630530916405232B6E
:1030700041F42091020130910301309364052093C3
:10308000630520910001309101012115310541F4C2
:103090002DB73EB74091040150910501241B350B1B
:1030A000E0916305F0916405E217F307A0F42E1B8D
:1030B0003F0B2817390778F0AC014E5F5F4F24179C
:1030C000350748F04E0F5F1F50936405409363052A
:1030D0008193919302C0E0E0F0E0CF01DF91CF91C6
:1030E0000895CF93DF93009709F487C0FC013297CE
:1030F00013821282C0916505D0916605209781F4F4
:1031000020813181280F391F8091630590916405DA
:103110008217930779F5F0936405E09363056DC01A
:10312000DE0120E030E0AE17BF0750F412964D915B
:103130005C9113979D014115510509F1DA01F3CF17
:10314000B383A28340815181840F951F8A179B0707
:1031500071F48D919C911197840F951F0296918324
:10316000808312968D919C9113979383828321156E
:10317000310529F4F0936605E09365053EC0D90159
:103180001396FC93EE9312974D915D91A40FB51F8A
:10319000EA17FB0779F480819181840F951F0296CD
:1031A000D90111969C938E938281938113969C935F
:1031B0008E931297E0E0F0E08A819B81009719F0EE
:1031C000FE01EC01F9CFCE01029628813981820FF0
:1031D000931F20916305309164052817390769F41E
:1031E000309729F4109266051092650502C013828B
:1031F0001282D0936405C0936305DF91CF91089547
:10320000FB01DC014150504048F001900D9200203C
:10321000C9F701C01D9241505040E0F70895FC01EC
:1032200081E090E00190061609F4CF010020D1F76B
:1032300001970895FB0151915523A9F0BF01DC01CD
:103240004D9145174111E1F759F4CD01019000204E
:1032500049F04D9140154111C9F3FB014111EFCFE8
:0C32600081E090E001970895F894FFCF02
:10326C0000006705800001000000FF1300014D61A4
:10327C007820736572766F7320617474616368650E
:10328C006400556E6B6E6F776E2070696E206D6F7B
:10329C006465002F686F6D652F6E65777361676568
:1032AC00732F446F63756D656E746F732F50726FEF
:1032BC00796563746F732F71742F6E5154727563CB
:1032CC006B732F7372632F6E51547275636B732F04
:1032DC006E71747275636B732F446973706F73695D
:1032EC007469766F732F5374616E6461726446698E
:1032FC00726D6174612F5374616E6461726446699E
:10330C00726D6174612E696E6F004932433A2054BC
:10331C006F6F206D616E79206279746573207265B0
:10332C00636569766564004932433A20546F6F20B7
:10333C00666577206279746573207265636569765A
:10334C0065640031302D6269742061646472657348
:10335C0073696E67206E6F7420737570706F727402
:10336C00656400746F6F206D616E79207175657284
:10337C006965730000000000A70A7A0A4F0A570A11
:10338C006A0A790A2E63707000000000009B145CBE
:10339C00161D1436142814791400000000071600AA
:107800000C94343C0C94513C0C94513C0C94513CE1
:107810000C94513C0C94513C0C94513C0C94513CB4
:107820000C94513C0C94513C0C94513C0C94513CA4
:107830000C94513C0C94513C0C94513C0C94513C94
:107840000C94513C0C94513C0C94513C0C94513C84
:107850000C94513C0C94513C0C94513C0C94513C74
:107860000C94513C0C94513C11241FBECFEFD8E036
:10787000DEBFCDBF11E0A0E0B1E0ECE9FFE702C060
:1078800005900D92A230B107D9F712E0A2E0B1E065
:1078900001C01D92AD30B107E1F70E942D3D0C945F
:1078A000CC3F0C94003C982F959595959595959582
:1078B000905D8F708A307CF0282F295A8091C0000B
:1078C00085FFFCCF9093C6008091C00085FFFCCF60
:1078D0002093C6000895282F205DF0CF982F809127
:1078E000C00085FFFCCF9093C6000895EF92FF92F1
:1078F0000F931F93EE24FF2487018091C00087FD22
:1079000017C00894E11CF11C011D111D81E4E8164B
:1079100082E4F8068FE0080780E0180770F3E09132
:107920000401F091050109958091C00087FFE9CF1E
:107930008091C6001F910F91FF90EF9008950E94D3
:10794000763C982F8091C00085FFFCCF9093C600B5
:1079500091362CF490330CF09053892F089597555D
:10796000892F08951F930E949F3C182F0E949F3CCF
:107970001295107F810F1F9108951F93182F882350
:1079800021F00E94763C1150E1F71F9108951F935A
:10799000182F0E94763C803249F0809103018F5F5E
:1079A000809303018530C1F01F9108958091C0003C
:1079B00085FFFCCF84E18093C6008091C00085FFE5
:1079C000FCCF1093C6008091C00085FFFCCF80E102
:1079D0008093C6001F910895E0910401F091050184
:1079E00009951F9108950E94763C803241F0809164
:1079F00003018F5F80930301853081F008958091AA
:107A0000C00085FFFCCF84E18093C6008091C00058
:107A100085FFFCCF80E18093C6000895E0910401CA
:107A2000F09105010995089540E951E08823A1F0FE
:107A30002D9A28EE33E0FA013197F1F721503040CA
:107A4000D1F72D9828EE33E0FA013197F1F7215064
:107A50003040D1F7815061F708953F924F925F9285
:107A60006F927F928F929F92AF92BF92CF92DF924E
:107A7000EF92FF920F931F93CF93DF93000080E16B
:107A80008093C4001092C50088E18093C10086E015
:107A90008093C2005098589A259A81E00E94143D24
:107AA00024E1F22E9EE1E92E85E9D82E0FE0C02ECA
:107AB00010E1B12EAA24A394B1E49B2EA6E58A2E50
:107AC000F2E57F2EE0E26E2E79E4572E63E5462E36
:107AD00050E5352E0E94763C8033B1F18133B9F107
:107AE000803409F46FC0813409F476C0823409F41B
:107AF00085C0853409F488C0803531F1823521F1A3
:107B0000813511F1853509F485C0863509F48DC0BC
:107B1000843609F496C0843709F403C1853709F423
:107B200072C1863709F466C0809103018F5F80932C
:107B30000301853079F6E0910401F0910501099582
:107B40000E94763C803351F60E94F33CC3CF0E94E2
:107B5000763C803249F78091C00085FFFCCFF092DF
:107B6000C6008091C00085FFFCCF9092C600809136
:107B7000C00085FFFCCF8092C6008091C00085FFC9
:107B8000FCCF7092C6008091C00085FFFCCF609250
:107B9000C6008091C00085FFFCCF5092C600809146
:107BA000C00085FFFCCF4092C6008091C00085FFD9
:107BB000FCCF3092C6008091C00085FFFCCFB09210
:107BC000C60088CF0E94763C863808F4BDCF0E945C
:107BD000763C0E94F33C7ECF0E94763C803809F4CC
:107BE0009CC0813809F40BC1823809F43CC1883942
:107BF00009F48FC080E00E94C73C6CCF84E10E94F2
:107C0000BD3C0E94F33C66CF85E00E94BD3C0E94D3
:107C1000F33C60CF0E94763C809306010E94763C44
:107C2000809307010E94F33C55CF0E94763C80333D
:107C300009F41DC183E00E94BD3C80E00E94C73C66
:107C400049CF0E94763C809309020E94763C809343
:107C5000080280910C028E7F80930C020E94763C79
:107C6000853409F415C18091080290910902892B8D
:107C700089F000E010E00E94763CF801E85FFE4FDA
:107C800080830F5F1F4F80910802909109020817AF
:107C9000190788F30E94763C803209F045CF809125
:107CA0000C0280FF01C16091060170910701660F0F
:107CB000771F7093070160930601A0910802B091AD
:107CC00009021097C9F0E8E0F1E09B01AD014E0F09
:107CD0005F1FF999FECF32BD21BD819180BDFA9A17
:107CE000F99A2F5F3F4FE417F50799F76A0F7B1F4B
:107CF00070930701609306018091C00085FFFCCF5F
:107D0000F092C6008091C00085FFFCCFB092C60003
:107D1000E1CE83E00E94C73CDDCE82E00E94C73CFA
:107D2000D9CE0E94763C809309020E94763C8093D3
:107D300008028091060190910701880F991F909386
:107D40000701809306010E94763C853409F4A6C0A1
:107D500080910C028E7F80930C020E94763C8032D0
:107D600009F0B8CE8091C00085FFFCCFF092C6002C
:107D7000609108027091090261157105B9F140E046
:107D800050E080910C02A82FA170B82FB27011C0E2
:107D9000BB2309F45CC0E0910601F0910701319624
:107DA000F0930701E09306014F5F5F4F46175707B7
:107DB000E8F4AA2369F3F999FECF209106013091E6
:107DC000070132BD21BDF89A90B58091C00085FFB2
:107DD000FCCF9093C6002F5F3F4F30930701209355
:107DE00006014F5F5F4F4617570718F38091C00099
:107DF00085FDE5CE8091C00085FFF8CFE0CE81E023
:107E00000E94C73C67CE0E94763C803209F08CCE3F
:107E10008091C00085FFFCCFF092C6008091C00029
:107E200085FFFCCFE092C6008091C00085FFFCCFAB
:107E3000D092C6008091C00085FFFCCFC092C600E2
:107E40008091C00085FFFCCFB092C60043CEE09188
:107E50000601F091070194918091C00085FFFCCF4D
:107E60009093C6009CCF80E10E94C73C33CE0E9415
:107E7000763C0E94763C182F0E94763C112309F430
:107E800083C0113009F484C08FE00E94C73C22CE29
:107E900080910C02816080930C02E5CE80910C02EF
:107EA000816080930C0259CF809107018823880F4D
:107EB000880B8A2180930B02809106019091070123
:107EC000880F991F90930701809306018091080203
:107ED00080FF09C080910802909109020196909359
:107EE000090280930802F894F999FECF1127E091D6
:107EF0000601F0910701C8E0D1E08091080290915D
:107F00000902103091F40091570001700130D9F34B
:107F100003E000935700E89500915700017001308D
:107F2000D9F301E100935700E89509901990009169
:107F3000570001700130D9F301E000935700E89534
:107F40001395103498F011270091570001700130FB
:107F5000D9F305E000935700E895009157000170B0
:107F60000130D9F301E100935700E895329602976A
:107F700009F0C7CF103011F00296E5CF112480919F
:107F8000C00085FFB9CEBCCE8EE10E94C73CA2CD19
:0C7F900085E90E94C73C9ECDF894FFCF0D
:027F9C00800063
:040000030000780081
:00000001FF
